:020000040800F2
:10000000307601200D030008D7270008F3230008ED
:10001000D5270008F1050008692F0008000000003E
:100020000000000000000000000000004D02000879
:10003000E506000800000000A9020008E12700080A
:1000400027030008270300082703000827030008E8
:1000500027030008270300082703000827030008D8
:1000600027030008270300082703000827030008C8
:1000700027030008270300082703000827030008B8
:1000800027030008270300082703000801060008CB
:10009000F5050008270300082703000827030008C8
:1000A0002703000827030008270300082703000888
:1000B0002703000827030008270300082703000878
:1000C0002703000827030008270300082703000868
:1000D0002703000827030008270300082703000858
:1000E0002703000827030008270300082703000848
:1000F0002703000827030008270300082703000838
:100100002703000827030008270300082703000827
:100110002703000827030008BD280008270300085C
:100120002703000827030008270300082703000807
:1001300027030008270300082703000831060008EA
:100140000D06000819060008250600082703000808
:100150002703000827030008270300085D2F000875
:1001600027030008270300082703000827030008C7
:1001700027030008270300082703000800000000E9
:1001800027030008270300082703000827030008A7
:100190002703000827030008270300082703000897
:1001A00000000000000000002703000800F002F833
:1001B00000F03CF80AA090E8000C82448344AAF1C5
:1001C0000107DA4501D100F031F8AFF2090EBAE8C3
:1001D0000F0013F0010F18BFFB1A43F0010318477B
:1001E000E838000008390000103A24BF78C878C108
:1001F000FAD8520724BF30C830C144BF04680C602D
:10020000704700000023002400250026103A28BF74
:1002100078C1FBD8520728BF30C148BF0B60704778
:100220001FB503F02BFC1FBD10B510BD00F0ABF9DE
:100230001146FFF7F5FF02F0A8FE00F0C9F903B47C
:10024000FFF7F2FF03BC00F0CDF900002C4B19685A
:100250000868B0E8F04F80F30988BFF36F8F4FF064
:10026000000080F311887047000000000848006813
:10027000006880F308884FF0000080F3148862B6AD
:1002800061B6BFF34F8FBFF36F8F00DF00BF00BFBA
:1002900008ED00E0DFF80C00016841F47001016036
:1002A000704700BF88ED00E0EFF30980BFF36F8F68
:1002B000134B1A681EF0100F08BF20ED108A20E9BA
:1002C000F04F106009B44FF0500080F31188BFF375
:1002D0004F8FBFF36F8F03F009FA4FF0000080F3E8
:1002E000118809BC19680868B0E8F04F1EF0100FBB
:1002F00008BFB0EC108A80F30988BFF36F8F704796
:1003000018000020EFF3058070470000094880477F
:1003100009480047FEE7FEE7FEE7FEE7FEE7FEE7E7
:10032000FEE7FEE7FEE7FEE704480549054A064BFF
:1003300070470000AD280008AD010008904500207E
:1003400030760120E0DD0020E0DD002053EA020CE1
:1003500000F069802DE9F04B4FF00006002B1FBF25
:10036000B3FA83F503FA05F424FA05F65E4012BFEA
:100370001643B2FA82F502FA05F4C5F120051EBF54
:1003800022FA05FC44EA0C04203556EA044C4FEAF4
:10039000144418BF641C4FF000084FF0000990424D
:1003A00071EB030C39D3002919BFB1FA81F701FAB7
:1003B00007F6B0FA80F700FA07F6C7F120071EBF6C
:1003C00020FA07FC46EA0C062037B6FBF4FCA7EB44
:1003D0000507103F07F01F0BCBF120060CFA0BFBB3
:1003E0002CFA06F644BFB3460026202FA4BF5E4673
:1003F0004FF0000B5BEA060C08BF4FF0010B19EB46
:100400000B09ABFB027C48EB0608C01B06FB02CCC9
:100410000BFB03CC71EB0C01C1E70B4602464146D6
:100420004846BDE8F08B13B54FF000004FF00001D7
:10043000AFF30080BDE81C407047032A40F23080D3
:1004400010F0030C00F0158011F8013BBCF1020F15
:10045000624498BF11F801CB00F8013B38BF11F896
:10046000013BA2F1040298BF00F801CB38BF00F8AD
:10047000013B11F0030300F02580083AC0F008802A
:1004800051F8043B083A51F804CBA0E80810F5E70E
:10049000121D5CBF51F8043B40F8043BAFF30080F1
:1004A000D20724BF11F8013B11F801CB48BF11F866
:1004B000012B24BF00F8013B00F801CB48BF00F836
:1004C000012B704710B5203AC0F00B80B1E81850EE
:1004D000203AA0E81850B1E81850A0E81850BFF42E
:1004E000F5AF5FEA027C24BFB1E81850A0E81850CD
:1004F00044BF18C918C0BDE810405FEA827C24BF21
:1005000051F8043B40F8043B08BF7047D20728BFAE
:1005100031F8023B48BF11F8012B28BF20F8023BFD
:1005200048BF00F8012B70474FF0000200B513469A
:1005300094469646203922BFA0E80C50A0E80C5003
:10054000B1F12001BFF4F7AF090728BFA0E80C50B4
:1005500048BF0CC05DF804EB890028BF40F8042BAD
:1005600008BF704748BF20F8022B11F0804F18BF1A
:1005700000F8012B7047704770477047004870477C
:100580003045002070477546FFF7F8FFAE4605007E
:100590006946534620F00700854618B020B5FFF79E
:1005A000C3FEBDE820404FF000064FF000074FF0BB
:1005B00000084FF0000B21F00701AC46ACE8C00981
:1005C000ACE8C009ACE8C009ACE8C0098D4670478A
:1005D00010B50446AFF300802046BDE81040FFF799
:1005E0002EBE000001491820ABBEFEE72600020027
:1005F000FEE70000014800F004B90000F804002004
:10060000014800F0FEB80000F8040020014800F0A6
:10061000F8B8000020050020014800F0F2B8000002
:1006200020050020014800F0ECB800002005002063
:10063000014800F0E6B80000200500202DE9FC4745
:100640001C4E89460746A6F14005DFF86C802AE07B
:100650006B46184A4946384600F059F8002498F885
:10066000021032681DE000BF55F824000368BB4249
:1006700016D1436B9A4213D1D0F8391000290DD00E
:10068000326980F8382055F8240069462C30FFF78D
:10069000D4FE55F82400D0F839108847BDE8FC870F
:1006A000641C8C42E0D34946384600F01FF800280D
:1006B000CED1F3E7084500208400002030B504685F
:1006C000256825F480252560046863608368402BD5
:1006D000036803D099600068C26030BD9A6000680A
:1006E000C16030BD704772B6FEE770470246002019
:1006F00092F82030012B01D0022B05D1106821B1D6
:10070000D0F8100000F003007047C068FAE770B539
:1007100090F82040012C05D0022C03D0416A41F40E
:10072000802128E0046809B32469A40720D04FF48D
:10073000D874056804EB01142D5915F00405956073
:1007400005682D591AD0ED08556005682C5904F03C
:100750000204D4604FF4DA74056804EB01142E59D6
:1007600006F00F06082E0CD308250DE0E468DCE740
:10077000416A41F400114162012070BD6D0D1560A8
:10078000E3E72D5905F00F05156105682D59C5F3EF
:100790000725956105682C59240C54614FF4DC72CF
:1007A000046802EB0112A4581C700468A458240ABF
:1007B0005C700468A458240C9C700468A258120E43
:1007C000DA704FF4DE72046802EB0112A4581C7157
:1007D0000468A458240A5C710468A458240C9C7111
:1007E0000468A258120EDA71006829B1016941F05B
:1007F00020010161002070BDC16841F02001C1608D
:10080000F8E72DE9F05F0546006800244669D0F856
:1008100004908768D0F80CB0D0F810A0D0F81880F9
:10082000F10748D0F90714D001218160B80703D53A
:10083000284600F019FA0CE0780702D54FF400645E
:1008400007E0380702D54FF4805402E0284600F054
:100850000AFAF80516D529684FF480708860B80543
:1008600003D5284600F002FA0CE0780502D544F4DE
:10087000005407E0380502D544F4804402E02846DD
:1008800000F0F3F9F80316D529684FF4803088603A
:10089000B80303D5284600F0EBF90CE0780302D545
:1008A00044F4004407E0380302D544F4803402E005
:1008B000284600F0DCF9300707D55FEACB6004D5A5
:1008C0002968102044F40074C86070074FF00807CE
:1008D00007D55FEA0B7004D52868C760284600F08A
:1008E000B9F9B00706D52868C068800702D0284645
:1008F00000F0B1F9700607D55FEACA6004D529682F
:10090000102044F480640861B00607D55FEA0A70DD
:1009100004D528680761284600F0A0F9F00606D53E
:1009200028680069800702D0284600F098F9B003D3
:1009300008D55FEAC96005D52968102048602846B7
:1009400000F090F9F00307D55FEA097004D5286834
:100950004760284600F08DF9300446D55FEA4970BB
:1009600040D5F00504D55FEAC87001D044F0010419
:10097000B00504D55FEA887001D544F00204700523
:1009800004D55FEA487001D544F00404300529D548
:1009900018F0700F26D008F07000402815D006DC43
:1009A000102809D020280AD0302816D10AE0502873
:1009B0000ED0602811D10EE044F008040DE044F0A0
:1009C00010040AE044F0200407E044F0400404E08E
:1009D00044F0800401E044F480742868816921F0C7
:1009E00070018161296804204860002C05D0686A84
:1009F000204368622846FFF778FEBDE8F09F70B597
:100A0000040003D094F8200010B104E0012070BD70
:100A1000204600F081F82068016841F00101016082
:100A200000F0DAFA0546052604E000F0D5FA401B8E
:100A30000A2811D820684068C007F6D020680168ED
:100A400021F00201016000F0C7FA05460BE000F05A
:100A5000C3FA401B0A2806D9606A40F4003060627D
:100A600084F82060D2E7206840688007EFD4207EB9
:100A70000128206801683DD021F080010160607E7E
:100A800001282068016838D021F040010160A07E73
:100A900001282068016833D021F020010160E07E48
:100AA0000128206801682ED041F010010160207FEC
:100AB00001282068016829D021F008010160607FC9
:100AC00001282068016824D021F004010160D4E9E4
:100AD00002010843D4E90412114308436168491E26
:100AE00008432168C86100206062012084F820006A
:100AF000002070BD41F08001C0E741F04001C5E732
:100B000041F02001CAE721F01001CFE741F00801D0
:100B1000D4E741F00401D9E7F0B587B004461421C9
:100B20006846FFF701FD464B4648DFF810E11968BB
:100B3000D4F800C0434A03250226092710300024B8
:100B4000491CF4452AD11960012907D1016841F0F7
:100B500000710160006800F000700590106840F0BE
:100B6000080010601068CDE9005600F00800CDE9DB
:100B7000047069463448CDE9024500F00DF90022C1
:100B80000521132000F0C6FA132000F0B5FA002268
:100B90000521142000F0BEFA14204AE0DFF8ACE092
:100BA000F44548D1D0F800C04CF0806CC0F800C0CB
:100BB000D0F800C001290CF0806CCDF814C0196089
:100BC00007D1016841F000710160006800F0007019
:100BD0000590106840F002001060106802AB00F051
:100BE000020005906020CDE9000683E8B000694668
:100BF000174800F0D1F8002205213F2000F08AFAC2
:100C00003F2000F079FA00220521402000F082FA0E
:100C1000402000F071FA00220521412000F07AFA0C
:100C2000412000F069FA00220521422000F072FA0A
:100C3000422000F061FA07B0F0BD000000640040FF
:100C40000400002030380240000C024000680040E0
:100C50000004024070470021FFF7F0BC70470121FB
:100C6000FFF7ECBC7047704770477047704770479C
:100C7000704770472DE9F0410446876D00F0ACF9EC
:100C8000064694F835000025022806D080206065CD
:100C900084F834500120BDE8F0812068016821F01B
:100CA000160101602068416921F080014161206CDA
:100CB00008B9A06C20B12068016821F0080101602A
:100CC0002068016821F0010101600CE000F084F966
:100CD000801B052807D920206065032084F8350093
:100CE00084F83450D7E720680068C007EED194F844
:100CF0005C103F208840B860012084F8350084F8FB
:100D000034500020C7E790F83510022903D0802125
:100D1000416501207047052180F8351000680168A1
:100D200021F001010160002070472DE9F0410446E7
:100D3000866D90F83400002501280DD0012084F83C
:100D4000340094F835700020012F07D084F8340067
:100D500002252846BDE8F0810220FBE7022784F83F
:100D6000357060652046FFF7A9FC94F85C103F20C1
:100D70008840B0602068016841F016010160206C75
:100D800020B12068016841F0080101602068016815
:100D900041F001010160DCE72DE9F84FDFF8F8A12F
:100DA0000022012403254FF00F090AF1040BAAF1D8
:100DB000040E00BF0B6804FA02F63340B34270D150
:100DC0000F7907F00307012F01D0022F16D1876892
:100DD0004FEA420805FA08FC27EA0C07D1F80CC0D4
:100DE0000CFA08FC4CEA070CC0F808C04768B74387
:100DF0000E79C6F3001696403E4346600E79F643E0
:100E0000B6070AD0C7684FEA420C05FA0CF6B7439A
:100E10008E6806FA0CF63E43C6600E7906F00306AD
:100E2000022E10D1D60800EB8608D8F820605707AC
:100E30004FEAD76C09FA0CF7BE430F6907FA0CF7B3
:100E40003743C8F8207006684FEA420C05FA0CF7E1
:100E5000BE430F7907F0030707FA0CF73743076023
:100E60004E6816F4403F1CD04C4E376847F480471C
:100E70003760366822F0030706F480460096484E35
:100E800007EB060CDCF8086897073F0F09FA07F82C
:100E900026EA0806DFF80C81404503D14FF0000830
:100EA00041E072E0DFF80081404502D14FF00108D7
:100EB00039E0DFF8F880404502D14FF0020832E017
:100EC000DFF8EC80404502D14FF003082BE0DFF85B
:100ED000E480404502D14FF0040824E0DFF8D880D8
:100EE000404502D14FF005081DE0DFF8D0804045B5
:100EF00002D14FF0060816E0DFF8C480404502D169
:100F00004FF007080FE0DFF8BC80404502D14FF0FA
:100F1000080808E0DFF8B080404502D14FF009082A
:100F200001E04FF00A0808FA07F848EA0608CCF88A
:100F30000888DAF800605746D1F804C09E435FEA9B
:100F4000CC2C00D51E433E60DBF800605F46D1F834
:100F500004C09E435FEA8C2C00D51E433E60DEF841
:100F600000607746D1F804C09E435FEA8C3C00D510
:100F70001E433E60084F083F3E68D1F804C09E43C0
:100F80005FEACC3C00D51E433E60521C102AFFF4A1
:100F900011AFBDE8F88F0000083C01404438024022
:100FA00000300140000002400004024000080240FE
:100FB000000C0240001002400014024000180240E1
:100FC000001C024000200240002402400AB181615E
:100FD00070470904FBE70000014880687047000083
:100FE000080000200248816802781144816070473F
:100FF000080000200B4810B5016841F40071016041
:10100000016841F480610160016841F48071016010
:10101000032000F09FF80F2000F006F800F050F8D1
:10102000002010BD003C024030B505461F4887B087
:101030000024016841F010010160006806A900F079
:101040001000009001A800F069F90498A8B100F020
:1010500085F940001649174AB0FBF1F11648491EC0
:10106000026040F2E732C0E90324C0E90114846160
:1010700000F084FC040003D015E000F06FF9E9E70C
:101080000D4800F0C9FC04000DD1362000F034F802
:10109000102D07D200222946362000F03BF80748E1
:1010A000056000E0012407B0204630BD4038024012
:1010B00040420F0000100040500700200C000020AC
:1010C0000C4882B0016841F480410160006800F47E
:1010D000804000900748001F016841F08051016086
:1010E0000068002200F0805000900F21901E02B096
:1010F00000F010B844380240002809DB00F01F025D
:10110000012191404009800000F1E020C0F8001169
:1011100070470000F0B40E4B1B680C46C3F302236B
:10112000C3F10705042D00D90425191D072901D293
:10113000002300E0DB1E012606FA05F1491E2140CE
:1011400099409E40761E16403143F0BC01F00DBF21
:101150000CED00E0064900F0070208684FF6FF03B7
:10116000184040EA0220034A10430860704700001C
:101170000CED00E00000FA052DE9F843174801687E
:1011800041F0805101600068154F00F08050012649
:1011900000903E64FFF720FF05464FF47A78114C2B
:1011A00005E000BFFFF718FF401B40450DD8606801
:1011B000C003F7D57E64FFF70FFF0546464607E0FC
:1011C000FFF70AFF401BB04202D90320BDE8F883B5
:1011D00060688003F4D50020F8E700004038024042
:1011E00000000E42007000402DE9F0470E46050059
:1011F00065D0DFF81481D8F80000F7B200F00F00D6
:10120000B04207D288F80070D8F8000000F00F0054
:10121000B04254D128683D4C810712D5400703D510
:10122000206840F4E05020602878000703D520684B
:1012300040F4604020602068A96820F0F000084376
:1012400020602878C0072DD0304968680839012807
:1012500012D0022813D0032811D009688907002969
:101260002DDA216821F0030101432160FFF7B4FE6C
:10127000814641F2883A0EE009688903EFE7096880
:101280008901ECE7FFF7A8FEA0EB0901514502D95F
:101290000320BDE8F0872068696800F00C00B0EB1F
:1012A000810FEFD1D8F80010404601F00F01B14294
:1012B00007D90770006800F00F00B04201D001208C
:1012C000E7E72878400705D52068E96820F4E05072
:1012D000084320602878000706D52068296920F493
:1012E000604040EAC100206000F058F82168084AD8
:1012F000C1F30311515CC840064908600648006804
:10130000FFF792FE0020C4E7003C0240083802408C
:10131000A43A0008140000200C0000200F220260F4
:101320000C4A136803F003034360136803F0F003EF
:101330008360136803F4E053C36012684FF4E05312
:1013400003EAD20202610448006800F00F0008605E
:101350007047000008380240003C0240044805493C
:1013600000680968044AC1F38221515CC840704793
:101370001400002008380240B43A00080448054927
:1013800000680968044AC1F34231515CC8407047A3
:101390001400002008380240B43A0008154810B57F
:1013A000006810F00C02144813D01449042A0FD01E
:1013B000082A0ED10F4C241F2268236802F03F0236
:1013C0005B0207D52068C0F38810A0FB010106E08E
:1013D000084610BD2168C1F38811A1FB000100235C
:1013E000FEF7B4FF2168C1F30141491C4900B0FB7D
:1013F000F1F010BD083802400024F40040787D016F
:101400002DE9F84F04006ED02078DFF84C93C00728
:10141000A9F104054AD009F104000168C1F3810172
:10142000012908D00068C0F3810002280AD1D9F848
:101430000000400206D52868800337D56068002880
:10144000E1D033E06068B0F5803F10D0B0F5A02F58
:10145000286810D020F480302860286820F480208C
:1014600028606068A8B1FFF7B7FD06460DE0286860
:1014700040F48030F4E740F480202860F7E700BFB4
:10148000FFF7AAFD801B642873D828688003F7D56E
:101490000CE0FFF7A1FD064605E000BFFFF79CFD4D
:1014A000801B6428F0D828688003F7D42078DFF800
:1014B000AC8280074FF0000A3ED5A748001D0168A6
:1014C00011F00C0F08D00068C0F3810002280BD186
:1014D000D9F80000400207D42868800716D5E068D4
:1014E000012800D112E033E1E068B8B10120C8F86A
:1014F0000000FFF771FD064605E000BFFFF76CFD39
:10150000801B0228C0D828688007F7D52868216981
:1015100020F0F80040EAC10028600DE0C8F800A003
:10152000FFF75AFD064604E0FFF756FD801B022830
:101530001FD828688007F7D42078000722D5864F67
:1015400087486169703771B101210160FFF744FD7F
:10155000064604E0FFF740FD801B022809D83868E2
:101560008007F7D50EE0C0F800A0FFF735FD06466E
:1015700005E082E0FFF730FD801B02287DD8386847
:101580008007F7D42078400768D5DFF8CCB1002772
:101590000BF13C0BDBF80000C0000BD4DBF80010B3
:1015A00041F08051CBF80010DBF80000012700F07B
:1015B000805000906B4E3068C00510D4306840F405
:1015C00080703060FFF708FD009005E0FFF704FD34
:1015D0000099401A022850D83068C005F6D55E4EF2
:1015E000A0686C3601280FD00528306810D020F094
:1015F00001003060306820F004003060A068B8B1AD
:10160000FFF7EAFC00900FE0306840F00100F4E7DB
:1016100040F004003060F7E7FFF7DEFC0099411A64
:1016200041F28830814266D830688007F4D50EE0F8
:10163000FFF7D2FC009007E0FFF7CEFC0099411ABB
:1016400041F28830814256D830688007F4D42FB1F7
:10165000DBF8001021F08051CBF80010A069C8B36E
:101660003D49091D0968C1F3810102294AD00228B8
:10167000504607D0C8F8600000E03CE0FFF7ACFC43
:1016800004463BE04746C8F86000FFF7A5FC064665
:1016900005E000BFFFF7A0FC801B02282BD82868BC
:1016A0008001F7D4D4E907010843A16A2E4A49080A
:1016B00002EB0141626A41EA8211084394F82C105E
:1016C00040EA0161C9F8001001203866FFF784FC88
:1016D000044606E03EE000BFFFF77EFC001B022848
:1016E00009D828688001F7D534E000BFFFF774FC03
:1016F000001B022802D90320BDE8F88F286880016A
:10170000F4D427E00128F7D0D9F80000E26900F40A
:10171000800191421CD1226A00F03F01914217D111
:1017200047F6C071626A0140B1EB821F10D1A26A14
:101730004FF0FF3300F4403103EB5202B1EB024FA4
:1017400006D194F82C1000F07060B0EB016F01D05E
:101750000120D1E70020CFE70438024000004742D3
:10176000800E4742007000400000FFFF70B504008B
:1017700009D0606A002540B125616561A56294F8D1
:10178000510040B10CE0012070BD6068B0F5827F6F
:10179000F4D0E561F2E784F85050204600F044F8B8
:1017A000022084F851002068016821F040010160A6
:1017B000A088218900F4827001F404410843A189C2
:1017C00001F400610843217C01F002010843217DFE
:1017D00001F001010843218B01F400710843217FCE
:1017E00001F03801084394F8201001F0800108430B
:1017F000218D01F40051084321680860A06904218B
:1018000001EA104094F8241001F010010843216807
:1018100048602068C16921F40061C16165650120EB
:1018200084F85100002070BD10B586B00446142124
:101830006846FEF779FE14492068884221D1134892
:101840000021026842F400520260006800F4005077
:1018500005900E481438026842F0100202600068D9
:1018600000F01000059042F2440000900220CDE903
:101870000101032003900520049069460448FFF706
:101880008BFA06B010BD000000340140443802401D
:10189000001002407047704710B590F83C20012AB4
:1018A00022D0012280F83C20CA688C6822F4407261
:1018B00022434C6822F4806222430C6822F40062C6
:1018C00022430C6922F4805222434C6922F40052D4
:1018D0002243C969002322F480420A4301684A6412
:1018E00080F83C30002010BD022010BD70B590F88B
:1018F0003C20012A32D0012480F83C40022280F8AA
:101900003D2003685A689D6822F070060A683243D9
:101910005A60134B02689A4214D0B2F1804F11D032
:10192000104B9A420ED0104B9A420BD00F4B9A425A
:1019300008D00F4B9A4205D00E4B9A4202D00E4B64
:101940009A4204D1496825F080031943916080F8D8
:101950003D40002180F83C10084670BD022070BD5B
:10196000000001400004004000080040000C00405E
:1019700000040140004001400018004010B5040080
:1019800003D094F83D0010B107E0012010BD002005
:1019900084F83C00204600F01FF8022084F83D0047
:1019A000211D206800F090FF012084F8460084F893
:1019B0003E0084F83F0084F8400084F8410084F839
:1019C000420084F8430084F8440084F8450084F819
:1019D0003D00002010BD000008B50C4A01680C480D
:1019E000914207D1016841F002010160006800F0F6
:1019F000020009E0074A914207D1016841F4003131
:101A00000160006800F40030009008BD000401404F
:101A1000443802400044014090F83D10012901D0B3
:101A200001207047022180F83D100168CA6842F029
:101A30000102CA6000681149884214D0B0F1804F99
:101A400011D00F4988420ED00E4988420BD00E4962
:101A5000884208D00D49884205D00D49884202D0FD
:101A60000C49884204D1816801F00701062903D09E
:101A7000016841F001010160002070470000014051
:101A80000004004000080040000C00400004014039
:101A9000004001400018004070B5044690F83C003A
:101AA0000025012817D0012684F83C60022084F824
:101AB0003D002068826822F0770222F47F42826033
:101AC0000868502838D00DDC20284FD005DC90B3B2
:101AD000102811D14AE0022070BD302846D040289D
:101AE0000AD13BE060282FD070280DD0B0F5805F80
:101AF00003D0B0F5005F12D0012584F83D600020CE
:101B000084F83C00284670BDCB68D1E901212068EB
:101B100000F042FF2068816841F0770109E0CB685E
:101B2000D1E90121206800F037FF2068816841F485
:101B300080418160E1E719E0CA684968206800F0E7
:101B4000FFFF5021206806E0CA684968206801F05C
:101B500008F86021206800F029FFCEE7CA684968CC
:101B6000206800F0EDFF40212068F4E7226801467C
:101B70001046F0E770472DE9F04104460068C6685A
:101B800005694FF00007A90713D5B10711D5F91E54
:101B9000016101202077206880698007204602D0FB
:101BA000FFF7E8FF04E000F0C1F8204600F066F916
:101BB0002777680716D5700714D521686FF00400E1
:101BC0000861022020772068806910F4407F204659
:101BD00002D0FFF7CFFF04E000F0A8F8204600F0A5
:101BE0004DF92777280715D5300713D521686FF0F1
:101BF00008000861042020772068C069800720461B
:101C000002D0FFF7B7FF04E000F090F8204600F0A4
:101C100035F92777E80616D5F00614D521686FF058
:101C200010000861082020772068C06910F4407F08
:101C3000204602D0FFF79EFF04E000F077F8204630
:101C400000F01CF92777E80708D0F00706D02168D4
:101C50006FF001000861204600F034F9280608D52D
:101C6000300606D521686FF0800008612046FFF736
:101C700011FE680608D5700606D521686FF0400091
:101C80000861204600F028F9A8060AD5B00608D554
:101C900021686FF0200008612046BDE8F041FFF7A1
:101CA000FABDBDE8F081000030B587B004461421CC
:101CB0006846FEF739FC19482468174D0021821543
:101CC0000223AC4210D1046844F0010404600068AF
:101CD000009200F001000590CDE901310120CDE92D
:101CE000031069460E4812E00E4DAC4211D1046853
:101CF00044F0020404600068009200F002000590C5
:101D0000CDE901310320CDE9031069460648FFF70C
:101D100043F807B030BD00000000014030380240F9
:101D2000000002400044014000040240704770B5CA
:101D3000044690F83C0000260D4601280FD00120F3
:101D400084F83C006AB1042A1DD0082A2FD00C2A3E
:101D50003FD00126002084F83C00304670BD0220B0
:101D600070BD206800F02AFE2068816941F00801FA
:101D700081612068816921F00401816120688169A5
:101D80002A69114311E0206800F048FE206881694B
:101D900041F4006181612068816921F48061816181
:101DA000206881692A6941EA02218161D2E72068BD
:101DB00000F06AFE2068C16941F00801C161206835
:101DC000C16921F00401C1612068C1692A69114318
:101DD00011E0206800F08CFE2068C16941F40061C8
:101DE000C1612068C16921F48061C1612068C16955
:101DF0002A6941EA0221C161ACE710B5040003D0B1
:101E000094F83D0010B107E0012010BD002084F8D7
:101E10003C00204600F01EF8022084F83D00211D01
:101E2000206800F051FD012084F8460084F83E004F
:101E300084F83F0084F8400084F8410084F84200B0
:101E400084F8430084F8440084F8450084F83D0099
:101E5000002010BD08B500680649884208D1064830
:101E6000016841F001010160006800F0010000908C
:101E700008BD00000000014044380240F0B40346B1
:101E80000F4800210D4A0125047812E052F8210084
:101E900006689E420BD186881F7FB60805FA06F6B3
:101EA000B74204D14169002905D0F0BC0847491C5C
:101EB000C9B2A142EAD3F0BC7047000088440020B8
:101EC0008000002000680349884201D1FFF78AB8EA
:101ED0007047000000100040704738B5044690F885
:101EE0004200202801D0022038BD51B14AB1012062
:101EF000206300206063204600F0E0FF216B012991
:101F000001D0012038BD21680A6849680091216824
:101F10000C3151E8002F42F0100241E80023002B61
:101F2000F5D138BD70B50E4618490024164D097814
:101F300026E000BF55F82420D2F8002182421DD1AE
:101F400055F82400D0F8040128B1804755F8240042
:101F50003146FEF7E9FA55F8241091F8FF20D1F840
:101F60000001FFF7BAFF55F82400D0F80001C06B5C
:101F70000068016821F00801016070BD641CE4B2D2
:101F80008C42D7D370BD0000244500209000002073
:101F900070B512490024104D09781AE055F8242034
:101FA000D2F80021824212D155F8241091F8FF2076
:101FB000D1F80001FFF791FF55F82400D0F8000197
:101FC000C06B0068016821F00801016070BD641CED
:101FD000E4B28C42E2D370BD244500209000002082
:101FE000F8B5016804460868CA684B6910F00F0F1D
:101FF0004FF0000559D003F0010602F49077374303
:1020000065D0C10705D0D10503D5616C41F0010150
:102010006164410705D5D90703D0616C41F0020125
:102020006164810705D5D90703D0616C41F00401D3
:102030006164010707D502F02001314303D0616CD0
:1020400041F008016164616C00293AD0800604D532
:10205000900602D5204600F049FE20684069616C78
:10206000C0F38010090700D460B3204600F009FED9
:1020700020684069400621D52068143050E8001FD0
:1020800021F0400140E80012002AF5D1E06BA8B130
:1020900072490165E06BFEF736FE002811D0E06B57
:1020A000016D01B0BDE8F040084783060FD59306E7
:1020B0000DD52046BDE8F84000F018BE2046FFF7D9
:1020C00067FFF8BD2046FFF763FF6564F8BD266B28
:1020D0002023012E7ED1C6067CD5D6067AD5086887
:1020E0004868009048694FF0020640064DD5E26B03
:1020F000106840684FF480770004000C3AD0A18D3E
:10210000814237D9E085D069B8422DD020680C30A3
:1021100050E8001F21F4807140E80012002AF5D138
:102120002068143050E8001F21F0010140E800123F
:10213000002AF5D12068143050E8001F21F040013A
:1021400040E80012002AF5D184F842302563206867
:102150000C3050E8001F21F0100140E80012002A66
:10216000F5D1E06BFEF786FD6663A08DE18D401A28
:1021700081B206E0A18D8142A8D1D069B842A5D133
:1021800066632046FFF7CEFEF8BDA08DE18D401AB4
:1021900081B2E08D0028F7D00029F5D020680C30FE
:1021A00050E8002F22F4907240E80027002FF5D16C
:1021B0002068143050E8002F22F0010240E8002788
:1021C000002FF5D184F84230256320680C3050E8A8
:1021D000002F00E006E022F0100240E80023002B70
:1021E000F3D1CDE705062BD5150629D594F8410086
:1021F0002128C9D1A068B0F5805F01D12069B0B1B4
:10220000206A411C2162216800784860E08C401EF1
:102210000004000CE084B7D12068C16821F080017F
:10222000C1602068C16841F04001C160F8BD206A0A
:102230000088C0F308004860206A801C2062E5E73F
:102240004006F3D55006F1D5CA68204622F0400278
:10225000CA6084F8413000F0CBF8F8BD872B000845
:1022600070B5040004D094F84100002510B106E0D8
:10227000012070BD84F84050204600F023F824204F
:1022800084F841002068C16821F40051C1602046F3
:1022900000F08EFD2068016921F490410161206801
:1022A000416921F02A0141612068C16841F400516F
:1022B000C1606564202084F8410084F842006563B1
:1022C000002070BDF0B587B0044614216846FEF7C3
:1022D0002BF93F483D4B226800243D491438022524
:1022E000032607279A4227D10A6842F010020A60A3
:1022F000096801F010010591016841F002010160D7
:10230000016801F002010591016841F001010160DD
:10231000006802AA00F0010005908020CDE90005C8
:1023200082E8D00069462B48FEF736FD2802CDE949
:102330000005694628481AE0284B9A421ED12449D4
:10234000091F0A6842F480220A60096801F48021AA
:102350000591016841F0040101600068694600F0E0
:10236000040005904FF44060CDE900051C4802AA26
:1023700082E8D000FEF710FD07B0F0BD194B9A427D
:10238000FAD10A6842F020020A60096801F02001CF
:102390000591016841F0400101600068029400F07D
:1023A000400005904FF48440CDE900050820CDE9B8
:1023B000036069460C48FEF7EFFC00220521472028
:1023C000FEF7A8FE4720FEF797FED5E70010014074
:1023D000443802400004024000000240004800402F
:1023E0000008024000140140001802407047704786
:1023F0007047FEE70E4810B50C49016005214160A9
:1024000000214FF4C0228160C0E9031241610176CE
:1024100041768176C17601774177FEF7F0FA0028A0
:1024200003D0BDE81040FEF75EB910BD0064004067
:10243000F80400200E4810B50C49016005214160E8
:1024400000214FF4C0228160C0E90312416101768E
:1024500041768176C17601774177FEF7D0FA002880
:1024600003D0BDE81040FEF73EB910BD0068004043
:102470002005002000B587B01C2206496846FEF7FB
:1024800021F80021684600F0AFFD0349086007B05D
:1024900000BD0000883A00080000002070B586B03A
:1024A00014216846FEF740F82F480024016841F0E7
:1024B00010010160016801F010010591016841F00F
:1024C00002010160016801F002010591016841F01B
:1024D00040010160016801F040010591016841F08F
:1024E00001010160016801F001010591016841F0FD
:1024F00008010160016801F008010591016841F0DF
:1025000004010160016801F004010591016841F0D6
:10251000800101600068154E00F0800005900122E6
:1025200018213046FEF752FD182000900125CDE914
:102530000154694630460394FEF72EFC6803CDE94A
:10254000000402200A4C029069462046FEF724FC53
:10255000302000904FF48810CDE9010569462046EF
:10256000FEF71AFC06B070BD303802400010024081
:1025700000080240104810B50E4901604FF4827106
:10258000416000218160C1604FF400720161C0E9C7
:1025900005121822C0E90721416281620A21C16245
:1025A000FFF7E4F8002803D0BDE81040FEF79BB821
:1025B00010BD0000003401404805002010B588B06F
:1025C0001C216846FDF7B0FF15481449002401603E
:1025D000B321C0E9011442F22731C0E90314846138
:1025E000FFF7CCF908B1FEF77EF80D48FFF705FCC0
:1025F00008B1FEF778F86020CDE9000402940022CB
:10260000694607480494FFF792FB08B1FEF76BF8A0
:102610000348FFF749FB08B010BD0000004401402B
:102620003006002010B592B000240F941C2108A899
:102630001094FDF779FF20216846FDF775FF2048CB
:102640001E490160B321C0E9011442F22731C0E9FB
:10265000031444618461FFF7D0FB08B1FEF743F82F
:102660000F940FA916481094FFF740F908B1FEF730
:102670003AF86020CDE908040A940B940C940D9468
:10268000002208A90E480E94FFF751FB08B1FEF78F
:102690002AF800944FF40050CDE9044002940194CC
:1026A0000394694606480794FFF7F6F808B1FEF769
:1026B0001AF80348FFF7F8FA12B010BD0000014005
:1026C000A005002010B586B000241748009401949E
:1026D00002940394049413490594C0E900144FF63E
:1026E000FF71C0E90241046144618461FFF746F96A
:1026F00008B1FDF7F8FF4FF48050009069460A4892
:10270000FFF7CAF908B1FDF7EEFF049404A90648E3
:102710000594FFF7EBF8002801D0FDF7E4FF06B0C1
:1027200010BD000000040140E80500200C4810B571
:102730000A4901604FF4E1314160002181600C22BF
:10274000C160C0E904128161C161FFF789FD002801
:1027500003D0BDE81040FDF7C6BF10BD001001401A
:10276000780600200C4810B50A4901604FF4E131A9
:102770004160002181600C22C160C0E904128161C6
:10278000C161FFF76DFD002803D0BDE81040FDF7E3
:10279000AABF10BD00480040C00600200C4810B57C
:1027A0000A4901604FF4E1314160002181600C224F
:1027B000C160C0E904128161C161FFF751FD0028C9
:1027C00003D0BDE81040FDF78EBF10BD00140140DE
:1027D00008070020FEE7FEE7012000F0F9FBFBE719
:1027E00010B5502080F31188BFF34F8FBFF36F8F68
:1027F00001F07CF818B104494FF0805008600020C7
:1028000080F3118810BD000004ED00E030B593B0F6
:1028100030216846FDF788FE14210CA8FDF784FEE0
:1028200020480025016841F080510160006800F0F7
:10283000805011901C48016841F4404101600068DB
:10284000022400F4404011900120039010200490D5
:10285000009406940820CDE90750B420CDE909047E
:1028600004200B906846FEF7CBFD08B172B6FEE778
:10287000FEF782FC08B172B6FEE70CA90F2081E8D2
:1028800031004FF4A0500F904FF48050109005216C
:102890000CA8FEF7A9FC002801D072B6FEE713B021
:1028A00030BD00004038024000700040024801681E
:1028B00041F470010160704788ED00E00148FFF7C6
:1028C0005AB9000050070020F0B50268274B284D88
:1028D000284E294F294C4FF0804C984209D0604532
:1028E00007D0A84205D0B04203D0B84201D0A042E0
:1028F00004D122F0700E4A6842EA0E0298421BD0C0
:10290000604519D0A84217D0B04215D0B84213D0B4
:10291000A04211D01A4DA8420ED01A4DA8420BD099
:10292000194DA84208D0194DA84205D0184DA8420B
:1029300002D0184DA84203D122F44075CA682A4338
:102940004D6922F080022A438D68C5620D68856258
:10295000984201D0A04201D109690163016841F0A8
:1029600004010160012141610260F0BD00000140ED
:102970000004004000080040000C0040000401403A
:102980000040014000440140004801400018004060
:10299000001C00400020004010B5846842EA032279
:1029A00024F47F440A432243826010BD826822F0EF
:1029B00070020A4342F0070181607047F0B5036A74
:1029C000026A22F00102026242688469124E24F017
:1029D00073050C682C4323F002058B682B430D4DC7
:1029E000A84201D0B04205D123F00807CB683B4391
:1029F00023F00403A84201D0B04205D14D6922F46E
:102A0000407215438A692A43426084614968416380
:102A10000362F0BD0000014000040140F0B5026A0D
:102A2000036A23F010030362436884690D6824F489
:102A3000E64444EA05248D6822F0200242EA0512A9
:102A40000F4D104EA84201D0B04206D1CF6822F0FF
:102A5000800242EA071222F04002A84201D0B042AE
:102A600007D14D6923F4406343EA85038D6943EA46
:102A7000850343608461496881630262F0BD0000A0
:102A80000000014000040140F0B5026A036A23F42B
:102A9000807303624368C46922F4007224F07305F2
:102AA0000C68124E2C438D6842EA05220E4DA84256
:102AB00001D0B04206D1CF6822F4006242EA072278
:102AC00022F48062A84201D0B04207D14D6923F4BC
:102AD000405343EA05138D6943EA05134360C4611B
:102AE0004968C1630262F0BD00000140000401407A
:102AF00030B5046A026A22F4805202624268C369F5
:102B00000D6823F4E64343EA05238D6824F400545A
:102B100044EA0534084DA84202D0084DA84204D129
:102B20004D6922F4804242EA85124260C3614968DD
:102B30000164046230BD0000000001400004014057
:102B400010B5036A046A24F001040462846924F065
:102B5000F00444EA021423F00A020A438461026288
:102B600010BD10B5036A046A24F01004046284697D
:102B700023F0A00324F4704444EA023243EA011132
:102B80008261016210BD10B5806B0021C185FFF725
:102B9000FFF910BD70B5846B2068406994F841104E
:102BA000C0F3C0100025212904D118B1E5842046C6
:102BB00000F08EF82068406994F84210C0F380104D
:102BC000222904D118B1E585204600F05AF8606C3E
:102BD00040F0100060642046FFF7DAF970BD10B5D0
:102BE0000146806B096809684FF00002C9052ED4C0
:102BF000C28501680C3151E8003F23F4807341E83D
:102C00000034002CF5D10168143151E8003F23F065
:102C1000010341E80034002CF5D10168143151E87A
:102C2000003F23F0400341E80034002CF5D120217F
:102C300080F84210016B012909D101680C3151E87B
:102C4000003F23F0100341E80034002CF5D142632B
:102C5000016B012902D0FFF7C9FB10BD818DFFF781
:102C600061F910BD10B5806B01214163016B012931
:102C700002D0FFF7BCFB10BD818D4908FFF752F968
:102C800010BD01680C3151E8002F22F4907241E828
:102C90000023002BF5D10168143151E8002F22F0F8
:102CA000010241E80023002BF5D1016B012909D174
:102CB00001680C3151E8002F22F0100241E8002396
:102CC000002BF5D1202180F84210002101637047CC
:102CD00001680C3151E8002F22F0C00241E80023C6
:102CE000002BF5D1202180F84110704708B590F8ED
:102CF0004210222901D0022008BD82684FF480537F
:102D00009A4201D1016921B1816A9A421BD04AB12C
:102D10000AE00268816A5268C2F308020A80816A86
:102D2000891C08E0026972B10268526802F07F02F1
:102D30000A70816A491C8162C18D491E0904090C0F
:102D4000C18503D01BE002685268F1E70168CA68D8
:102D500022F02002CA600168CA6822F48072CA6048
:102D600001684A6922F001024A61202180F842107C
:102D700000214163026B012A03D0FFF737FB0020DB
:102D800008BD016301680C3151E8002F22F01002E8
:102D900041E80023002BF5D101680A68D20602D56C
:102DA0000A6849680091818DFFF7BCF8E7E70000E9
:102DB00070B5044600680169E26821F4405111438E
:102DC00001612169A068E269084361691143084310
:102DD0002168CA6849F20C639A430243CA602068BA
:102DE0004169A26921F44071114341613149206870
:102DF000884202D03049884202D1FEF7BFFA01E092
:102E0000FEF7ACFAE2690023192164253226B2F5F7
:102E1000004F626828D0A0FB0101930F9200FDF7DC
:102E200095FA0146B0FBF5F06FF01802504301EB44
:102E3000800006EB0010B0FBF5F000F0F002B1FBF3
:102E4000F5F002EB0012B1FBF5F06FF018035843F8
:102E500001EB800006EB0010B0FBF5F000F00F0076
:102E600021681044886070BDA0FB010192185B418D
:102E7000FDF76CFA0146B0FBF5F00201B1FBF5F08D
:102E80006FF01803584301EB800006EBC000B0FB65
:102E9000F5F000F0F80002EB4002B1FBF5F058430A
:102EA00001EB800006EBC000B0FBF5F000F007007E
:102EB000D6E70000001001400014014038B58162DF
:102EC00004468285002013466064222284F8422052
:102ED000E56B1F4AEA63E56B1E4A2A64E56B1E4AEE
:102EE000EA64E26B10650A462168E06B091DFDF794
:102EF0001CFF30B110206064202084F842000120C3
:102F000038BD2068016840680090206948B1206899
:102F10000C3050E8001F41F4807140E80012002A94
:102F2000F5D12068143050E8001F41F0010140E85D
:102F30000012002AF5D12068143050E8001F41F03B
:102F4000400140E80012002AF5D1002038BD000001
:102F5000DF2B0008652C0008952B00080148FFF7BF
:102F60003FB8000008070020FEE70907090E002807
:102F700004DB00F1E02080F80014704700F00F003F
:102F800000F1E02080F8141D7047FEF733F8FFF7DA
:102F90003DFCFFF783FAFFF72DFAFFF74BFAFFF737
:102FA00091FBFFF70BFBFFF7C1FBFFF7DBFBFFF725
:102FB000F5FBFFF7DFFAFFF735FBFFF75BFA00F0F1
:102FC0000EF8FEE701460020842900D0C81C704797
:102FD00010B500B9012000F025FB002010BD10B590
:102FE00000F046FB002010BD7FB50D460446416948
:102FF000B0F9080081B1A16971B1FFF7E3FFD4E92D
:1030000005128DE80700D4E900102B46226900F074
:1030100042FC039004B070BDFFF7D4FF03A9CDE9D3
:103020000001208A2B4682B2D4E9001000F006FC91
:10303000012801D00020EDE70398EBE72DE9F041EE
:10304000184C0F460546E6682068001D00F020FA7F
:1030500038B9206890F82C100120884021698143FC
:103060002161681C07D137B12168BDE8F0410E48E5
:10307000091D00F053BA20683544B5424560216807
:1030800005D2A06BBDE8F041091D00F02FBA606BBE
:10309000091D00F02BFAA06A854200D2A562BDE8A6
:1030A000F081000018000020740800202DE9F04194
:1030B000054600F03FFA2E4CA068401CA060206836
:1030C0002C4F10B1606940B32DE02560A068012845
:1030D00029D1002606EB860007EB800000F0F8F906
:1030E000761C072EF6D323488C3000F0F1F92148E6
:1030F000A03000F0EDF91F48B43000F0E9F91D48A8
:10310000C83000F0E5F91B48DC3000F0E1F919485F
:103110008C3060631430A06305E02068E96AC06AFF
:10312000884200D82560606A401C6062E96A01201C
:10313000226988401043206101EB810007EB800089
:10314000291D00F0EBF900F015FA606900280CD099
:103150002068E96AC06A884207D207494FF0805068
:103160000860BFF34F8FBFF36F8FBDE8F0810000A1
:10317000180000209807002004ED00E010B5044678
:1031800090F8610058B101280CD002280FD05020CF
:1031900080F31188BFF34F8FBFF36F8FFEE7206B73
:1031A00000F0FCF92046BDE8104000F0F7B910BD72
:1031B00010484FF47051420706D0C01D0D4920F051
:1031C0000700411AC1F570510B4A00230144C2E9BE
:1031D00000030839183A21F0070111604B600B60B9
:1031E0000B1AC0E9001393604FF000405360506128
:1031F00070470000880800206C000020144E154C19
:10320000A6F1C8074FF08058DFF84C9012E000BFDD
:1032100000F090F9F068C568281D00F039F9A06841
:10322000401EA0606068401E606000F0A3F9284660
:10323000FFF7A4FF60680028EAD138680128F9D9AF
:10324000C9F80080BFF34F8FBFF36F8FF2E7000024
:10325000600800201800002004ED00E02DE9F04790
:103260009A46DDE9098481466FF00303206B03EB86
:1032700082021044089E20F00707780707D05020EC
:1032800080F31188BFF34F8FBFF36F8FFEE70025E8
:1032900061B1002023180A5C83F834200A5C12B163
:1032A000401C2028F6D384F8535001E084F83450B1
:1032B000072E00D30626E662C4E91565201D00F03E
:1032C00012F904F1180000F00EF92461C6F10700AC
:1032D0006462A061E56584F860505246494638460C
:1032E00000F0C0F82060B8F1000F01D0C8F800402D
:1032F000BDE8F08730B5114900E011460A68824206
:10330000FBD34B685C18844203D140681844486082
:10331000084643681C18944209D1084C183C24689C
:10332000A24209D052681A4442600A6812680260D8
:10333000814200D0086030BD0460F9E76C000020D5
:103340000648416B096829B1416BC968C968496879
:10335000816270474FF0FF31FAE70000180000204B
:1033600008484068401C4FF0500080F3118804D09A
:10337000BFF34F8FBFF36F8FFEE7BFF34F8FBFF3E6
:103380006F8FFEE7740000202DE9F041054600270D
:1033900000F0A4F9324E306808B9FFF709FF7069F0
:1033A00005424ED1C5B3083568070ED005F00700B9
:1033B000C0F108000544680707D0502080F3118849
:1033C000BFF34F8FBFF36F8FFEE72DB37068854259
:1033D00037D82348183001460C6801E020460C46D7
:1033E0006168A94202D221680029F7D131688C4274
:1033F00027D007682168016060680837411B1029E1
:103400000FD96019420708D0502080F31188BFF30C
:103410004F8FBFF36F8FFEE713E041606560FFF7EA
:1034200069FF61687068401A7060B268904200D2AB
:10343000B060706901430020C4E90001F068401CDD
:10344000F06000F0B9FA780707D0502080F31188B7
:10345000BFF34F8FBFF36F8FFEE73846BDE8F081B3
:103460005400002010B5031F4FF080741C601B1F18
:1034700021F001011960191F044B0B6014390A6017
:10348000091F6FF0020244380A6010BD6133000862
:10349000D0E9013201699A60D0E901235A604A6893
:1034A000824201D182684A60002202610868401E9F
:1034B0000860086870470000044B036003F1640073
:1034C00008604FF480701060704700009400002086
:1034D00000F108014FF0FF32C0E90112C160016143
:1034E00000210160704700210161704730B50B6811
:1034F0005A1C02D000F1080202E0026904E02246F0
:10350000546825689D42FAD953684B6099608A6077
:10351000516008610168491C016030BD42684A6021
:1035200093688B6093685960916008610168491CD9
:1035300001607047502080F31188BFF34F8FBFF3B5
:103540006F8F0A494868401C486001280CD1084820
:10355000006810F0FF0F07D0502080F31188BFF3F0
:103560004F8FBFF36F8FFEE770470000740000209D
:1035700004ED00E00849486828B1401E486001D1C8
:1035800080F311887047502080F31188BFF34F8F6C
:10359000BFF36F8FFEE700007400002070B50028B5
:1035A0002AD0164DA0F1080460686969084207D165
:1035B000502080F31188BFF34F8FBFF36F8FFEE76A
:1035C00022683AB1502080F31188BFF34F8FBFF3C8
:1035D0006F8FFEE78843606000F080F8606869687C
:1035E000084468602046FFF785FE2869401C286172
:1035F000BDE8704000F0E0B970BD0000540000204C
:103600004FF0E02000210161816105494FF47A7299
:103610000968B1FBF2F1491E416107210161704760
:103620001400002010B5020014D00F48006B38B110
:10363000502080F31188BFF34F8FBFF36F8FFEE7E9
:1036400000F04CF800211046FFF7F8FC00F0B4F948
:10365000002807D105494FF080500860BFF34F8F15
:10366000BFF36F8F10BD00001800002004ED00E0D4
:1036700010B586B00024039405AA04A903A80494F5
:10368000FFF71AFFDDE903010094CDE901100023E3
:103690000EA11048059A00F0FEF80F490028C862F4
:1036A00011D0502080F31188BFF34F8FBFF36F8F7D
:1036B0004FF0FF30886201204861CC6006B0BDE861
:1036C000104000F041B806B010BD000049444C4520
:1036D00000000000FD310008180000200248016BC6
:1036E000491C016370470000180000201448016B5A
:1036F00011B10121C16170470021C1610169B1FAB5
:1037000081F1C1F11F0101EB81020E4951F8223014
:103710006BB101EB820101F108034A6852684A600B
:103720009A4201D152684A60D168016070475020C6
:1037300080F31188BFF34F8FBFF36F8FFEE7000058
:1037400018000020980700201CB537480168374A48
:10375000914207D1502080F31188BFF34F8FBFF300
:103760006F8FFEE700683149491E884207D150201B
:1037700080F31188BFF34F8FBFF36F8FFEE72C49A3
:1037800008780190FF20087008788DF800009DF8F7
:1037900000009DF8002000F0F000904207D050207B
:1037A00080F31188BFF34F8FBFF36F8FFEE79DF853
:1037B0000000204C00F0500020700720A06005E0C1
:1037C0009DF8002052008DF80020401E9DF800203A
:1037D0001206F5D4A060032807D0502080F311888A
:1037E000BFF34F8FBFF36F8FFEE74FF44070A060C1
:1037F000019808700C482030016841F470010160A4
:10380000016841F070410160FFF7FAFE002060603E
:10381000FCF740FD0848016841F040410160FCF7B9
:1038200025FD00201CBD000000ED00E071C20F412D
:1038300000E400E07400002034EF00E02DE9FF5FB9
:103840008346DDE90E87994616468A469000FFF7C3
:103850009BFD05001CD06420FFF796FD040014D0EA
:103860000020256384F86100CDE90240CDE900879E
:103870004B46324651465846FFF7F0FC2046FFF7CC
:1038800015FC012004B0BDE8F09F2846FFF786FE36
:103890004FF0FF30F6E7F0B585B0DDE90B640A9D27
:1038A000A6B1DCB1642700972663022684F8616024
:1038B000002604AFCDE90246CDE90057FFF7CEFC64
:1038C0002046FFF7F3FB049805B0F0BD502080F3CD
:1038D0001188BFF34F8FBFF36F8FFEE7502080F347
:1038E0001188BFF34F8FBFF36F8FFEE72DE9F041D3
:1038F0002F4C0026206B28B1A069401CA0613046E7
:10390000BDE8F081E5686D1CE56013D1606B00686F
:1039100038B1502080F31188BFF34F8FBFF36F8F02
:10392000FEE7606BA16B6163A063206A401C2062AC
:10393000FFF706FDA06ADFF87C80854209D3606B43
:103940000068A0B1606BC068C7687868854211D212
:10395000A0622068C06A00EB800158F821000128AD
:1039600000D90126E0690028C9D00126C7E74FF039
:10397000FF30EDE7381DFFF78BFDB86A18B107F18E
:103980001800FFF785FDF96A01202269884010437D
:10399000206101EB810108EB8100391DFFF7BEFDBD
:1039A000F86A2168C96A8842C9D30126C7E70000BE
:1039B00018000020980700202DE9F0472C4D002426
:1039C0002746286B38B1FFF7B5FD286B401E2863EA
:1039D000286B40B146E0502080F31188BFF34F8F31
:1039E000BFF36F8FFEE7A968224E0120D1B3A6F185
:1039F000B40980463068E8B1F068C46804F1180082
:103A0000FFF746FD201DFFF743FDE06A2A6908FA2B
:103A100000F11143296100EB800109EB8100211DB8
:103A2000FFF77CFDE06A2968C96A8842E2D3C5F8DD
:103A30001C80DFE70CB1FFF783FCAC6944B146465C
:103A4000FFF754FF00B1EE61641EF9D10020A861B8
:103A5000E86938B10849012738070860BFF34F8F7C
:103A6000BFF36F8FFFF786FD3846BDE8F087000093
:103A7000180000204C08002004ED00E04FF04070DA
:103A8000E1EE100A70470000BC3A0008D927000890
:103A90000000000000000000000100000000000025
:103AA000000000000000000000000000010203040C
:103AB000060708090000000001020304646566614E
:103AC000756C745461736B00E83A000800000020C4
:103AD00094000000E80100087C3B000894000020EE
:103AE0009C750100040200080000000000000000B6
:103AF0000100000010000000000000000024F4009D
:103B000000000000000000000000000000000000B5
:103B100000000000000000000000000000000000A5
:103B20000000000000000000000000000000000095
:103B30000000000000000000000000000000000085
:103B40000000000000000000000000000000000075
:103B50000000000000000000000000000000000065
:103B6000AAAAAAAA0000000000000000000E00009F
:0C3B700000000000000000000000000049
:04000005080001AD41
:00000001FF
